:020000040000FA
:100000000C946D000C9495000C9495000C94950044
:100010000C9495000C9495000C9495000C9495000C
:100020000C9495000C9495000C9495000C949500FC
:100030000C9495000C9495000C9495000C949500EC
:100040000C9408070C9495000C9495000C94950062
:100050000C9495000C9495000C9495000C949500CC
:100060000C9452070C94950032323A31333A3235BF
:100070000044656320313620323032350000000004
:1000800000240027002A0000000000250028002B83
:1000900000000000002300260029000404040404DA
:1000A0000404040202020202020303030303030125
:1000B00002040810204080010204081020010204FC
:1000C00008102000000008000201000003040700DF
:1000D00000000000000000007E0811241FBECFEFCA
:1000E000D8E0DEBFCDBF22E0A2E9B1E001C01D92A1
:1000F000A738B207E1F711E0A0E0B1E0E6E3FDE1E7
:1001000002C005900D92A239B107D9F710E0CDE6F3
:10011000D0E004C02197FE010E945A0DCC36D107D1
:10012000C9F70E949F080C94990E0C940000089542
:100130000895833081F028F4813099F08230A9F05D
:1001400008958730A9F08830C9F08430B1F48091E7
:1001500080008F7D03C0809180008F778093800026
:10016000089584B58F7784BD089584B58F7DFBCFC6
:100170008091B0008F778093B00008958091B00097
:100180008F7DF9CFCF93DF93282F30E0F901ED5326
:10019000FF4F8491F901E155FF4FD491F901E556E4
:1001A000FF4FC491CC23A1F081110E949900EC2F44
:1001B000F0E0EE0FFF1FEF56FF4FA591B491EC91C9
:1001C000ED2381E090E009F480E0DF91CF91089584
:1001D00080E090E0FACF1F93CF93DF93282F30E099
:1001E000F901ED53FF4F8491F901E155FF4FD4918F
:1001F000F901E556FF4FC491CC23A9F0162F8111C8
:100200000E949900EC2FF0E0EE0FFF1FE957FF4F1F
:10021000A591B4918FB7F894EC91111108C0D095C5
:10022000DE23DC938FBFDF91CF911F910895DE2BEA
:10023000F8CFCF93DF9390E0FC01E155FF4F24917D
:1002400085569F4FFC0184918823D1F090E0880F60
:10025000991FFC01E358FF4FA591B491FC01E957A8
:10026000FF4FC591D491623071F49FB7F8943C91DF
:10027000822F809583238C93E8812E2B28839FBF28
:10028000DF91CF9108958FB7F894EC912E2B2C939A
:100290008FBFF6CF3FB7F8948091EE019091EF01B8
:1002A000A091F001B091F10126B5A89B05C02F3FA8
:1002B00019F00196A11DB11D3FBFBA2FA92F982F8C
:1002C0008827BC01CD01620F711D811D911D42E087
:1002D000660F771F881F991F4A95D1F708958F924F
:1002E0009F92AF92BF92CF92DF92EF92FF924B011B
:1002F0005C010E944A016B017C010E944A016C1959
:100300007D098E099F09683E734081059105A8F318
:1003100021E0821A9108A108B10888EEC80E83E096
:10032000D81EE11CF11C81149104A104B10429F729
:10033000FF90EF90DF90CF90BF90AF909F908F9005
:1003400008952FB7F8946091EA017091EB018091C4
:10035000EC019091ED012FBF0895AF92BF92CF9223
:10036000DF92EF92FF920F931F93CF93DF936C0175
:100370007B018B01040F151FEB015E01AE18BF0856
:10038000C017D10759F06991D601ED91FC91019008
:10039000F081E02DC6010995892B79F7C501DF9120
:1003A000CF911F910F91FF90EF90DF90CF90BF9072
:1003B000AF90089508952091B301260F3327331F7E
:1003C00021323105ECF420914002FC0190E080E004
:1003D000243069F082E00895A091B3012191AC012D
:1003E0004D565E4FA40FB52FB11D2C930196861765
:1003F00098F38091B301680F6093B30180E0089592
:1004000081E008951092400281E080933F021092B3
:100410001A0261E082E10E94EB0061E083E10E9448
:10042000EB00E9EBF0E080818E7F808380818D7F1F
:10043000808388E48093B80085E48093BC000895AD
:100440001092F9011092F80110924702109269027D
:100450000E94020287E990E09093F5018093F401F5
:1004600088E990E09093F3018093F2010895CF938F
:10047000DF9391E0909392018823B9F0C091B80086
:10048000D091BA008091BC008A7B8093BC0060E070
:1004900082E10E94EB0060E083E10E94EB000E9499
:1004A0000202D093BA00C093B800DF91CF910895B3
:1004B0008F929F92AF92BF92CF92DF92EF92FF9274
:1004C0000F931F93CF93DF93D0916902D13208F03D
:1004D000D7C0182FC09168020E944A016B017C01AD
:1004E0008091400281116BC082E0809340021093A2
:1004F0003F028FEF80933E0210923D02D0933C0268
:10050000A8E4B2E0ECE1F2E080E0D81391C01092F0
:100510001B0280911B02CC0FC82BC0931B02809141
:100520001A02813009F088C010921A020E944A0112
:100530006B017C0180911B028093BB008091420281
:1005400090914302A0914402B0914502892B8A2BDD
:100550008B2BA1F00E944A010091420210914302AC
:1005600020914402309145026C197D098E099F0942
:10057000061717072807390708F442C08091BC0006
:1005800083FDD8CF85EC8093BC000E944A016B01AB
:100590007C0180914002823009F450C080913E027B
:1005A0008F3F09F46FC080913E02803209F46CC025
:1005B00080913E02803309F469C084E026C08091B6
:1005C000420290914302A0914402B0914502892BCE
:1005D0008A2B8B2B09F484CF0E944A01809042021F
:1005E00090904302A0904402B09045026C197D099E
:1005F0008E099F0986169706A806B90608F070CFDF
:10060000809141020E94370285E0109247021092C9
:10061000690210924602DF91CF911F910F91FF90D6
:10062000EF90DF90CF90BF90AF909F908F90089504
:100630009D9191938F5F69CF85EEA5CF8091420206
:1006400090914302A0914402B0914502892B8A2BDC
:100650008B2B09F49ECF0E944A0100914202109117
:10066000430220914402309145026C197D098E09A4
:100670009F09061717072807390708F08ACFC0CF48
:1006800081E0C3CF80E0C1CF82E0BFCF83E0BDCFA8
:100690001F93CF93DF93EA01122FDC0111968D9106
:1006A0009C91DC01ED91FC910280F381E02D099594
:1006B000C817D90729F4812F0E94580291E08111AF
:1006C00090E0892FDF91CF911F910895CF93DF9311
:1006D000EC018B818823A1F0888191E09093460200
:1006E00080936802109247021092690281E00E9492
:1006F000580291E0811190E0892FDF91CF91089508
:100700000E94200281E08B83CE010E946603982F15
:100710008111E2CFF1CF0895E091F9018091F801C4
:10072000E81730F4F0E0E650FE4F808190E0089545
:100730008FEF9FEF08959091F9018091F8012FEFCD
:100740003FEF981748F4E92FF0E0E650FE4F208184
:1007500030E09F5F9093F901C90108958091F801FD
:100760009091F901891B990B0895CF92DF92EF9236
:10077000FF920F931F93CF93DF937C01CB018A01EC
:1007800020914602222389F0EB016B01C40ED51E95
:10079000CC15DD0569F06991D701ED91FC910190CF
:1007A000F081E02DC7010995F3CF642F0E94DB0192
:1007B000C801DF91CF911F910F91FF90EF90DF90D3
:1007C000CF900895CF93DF931F92CDB7DEB76983A3
:1007D000209146022223F9F020916902203258F03C
:1007E00021E030E0FC013383228390E080E00F9031
:1007F000DF91CF91089580914702E82FF0E0E85B08
:10080000FD4F998190838F5F8093470280936902A7
:1008100081E090E0ECCF61E0CE0101960E94DB0127
:10082000F7CFFC01248131E0309346022093680227
:1008300010924702109269028485682B8AE692E042
:100840000E94E20381E00C94580290E080E0089559
:100850002F923F924F925F926F927F928F929F92D0
:10086000AF92BF92CF92DF92EF92FF920F931F93BE
:10087000CF93DF935C011B016A01F12CE12CD501C0
:1008800014968D919C9186010E191F09801791076E
:1008900008F48C01F501D0810E944A012B013C0132
:1008A00080914002811172C0C02F013208F0C0E275
:1008B000F1E0F093400221E0C601801B910BE816A5
:1008C000F90608F420E020933F028FEF80933E0268
:1008D00010923D028C0F80933C02A1E0A0931B027A
:1008E00080911B02DD0FD82BD0931B0280911A023E
:1008F000813009F090C010921A020E944A012B0127
:100900003C0180911B028093BB0080914202909138
:100910004302A0914402B0914502892B8A2B8B2B74
:10092000A1F00E944A01209142023091430240917D
:1009300044025091450264197509860997092617E2
:1009400037074807590708F442C08091BC0083FD6F
:10095000D8CFB5ECB093BC000E944A012B013C01FA
:1009600080914002813009F45AC080913D028C1779
:1009700010F4C0913D02ACE1B2E0EAEFF1E080E0BA
:100980008C1751F19D9191938F5FFACF8091420224
:1009900090914302A0914402B0914502892B8A2B89
:1009A0008B2B09F47DCF0E944A01209142023091A5
:1009B0004302409144025091450264197509860929
:1009C0009709261737074807590708F069CF80911C
:1009D00041020E943702C0E01092F901C093F80171
:1009E000C017110609F057C041018E0C9F1CE4018D
:1009F000CE01881999098017910798F5D5011196AC
:100A00008D919C91DC01ED91FC910284F385E02DA8
:100A100009958993EDCFE5EEE093BC009DCF8091E1
:100A2000420290914302A0914402B0914502892B69
:100A30008A2B8B2B09F494CF0E944A012091420209
:100A40003091430240914402509145026419750966
:100A500086099709261737074807590708F080CFF6
:100A6000B6CFE00EF11EEC14FD0408F408CF81E0CF
:100A7000DF91CF911F910F91FF90EF90DF90CF907A
:100A8000BF90AF909F908F907F906F905F904F90AE
:100A90003F902F90089580E0EBCFEF92FF920F935D
:100AA0001F93CF93DF9300D000D000D01F92CDB71B
:100AB000DEB78C011982E090F601F090F701D701C2
:100AC00014968D919C911597892BE9F08C9191E06A
:100AD0009093460280936802109247021092690236
:100AE00020E041E050E0BE016F5F7F4FC7010E94F0
:100AF0004803882341F047E050E0BE016F5F7F4F1D
:100B0000C7010E942804E981EF77FA81FB804D81BB
:100B10005E818F81282F30E094E0359527959A9556
:100B2000E1F7922F990F990F291B220F280FD80157
:100B30002C93852F90E024E0959587952A95E1F7F1
:100B4000982F990F990F891B880F850F11968C93F9
:100B50001197642F70E034E0759567953A95E1F749
:100B6000862F880F880F681B660F640F12966C9390
:100B700012974F2D50E064E0559547956A95E1F73F
:100B8000842F880F880F481B440F4F0D13964C93EA
:100B900013972F2F30E074E0359527957A95E1F77C
:100BA000822F880F880F281B220F2F0F14962C934B
:100BB00014978E2F90E0F4E095958795FA95E1F7DC
:100BC000982F990F990F891B880F8E0F15968C936C
:100BD000C80127960FB6F894DEBF0FBECDBFDF91D8
:100BE000CF911F910F91FF90EF9008950F931F9356
:100BF000CF938C01C62F0E9411046C2F6460C80132
:100C00000E9411046C2F6B7FC8010E94110483ECB9
:100C100090E00197F1F7CF911F910F9108950F93F5
:100C20001F93CF93DF938C01D62FC42F607F642B4B
:100C30000E94F60580E1D89FB00111246C2BC801F9
:100C4000DF91CF911F910F910C94F605CF93DF9315
:100C5000CDB7DEB728970FB6F894DEBF0FBECDBF75
:100C600098E0EDE0F1E0DE01119601900D929A9589
:100C7000E1F790917E02981708F48FEF90E0880FCB
:100C8000991F21E030E02C0F3D1F820F931FFC01C4
:100C90006081606840E086E792E028960FB6F8949D
:100CA000DEBF0FBECDBFDF91CF910C940F0640E0A9
:100CB00061E086E792E00E940F068BE39FE10197D7
:100CC000F1F780917F02882319F080E00C942606CA
:100CD000089541E00E940F0681E090E0089541E010
:100CE000682F86E792E00E940F0681E090E0089569
:100CF000CF92DF92EF92FF920F931F93CF93DF93E8
:100D0000CDB7DEB7A1970FB6F894DEBF0FBECDBF4B
:100D1000282F30E050E040E019A28E010F5D1F4FF8
:100D20008AE0C82ED12CE12CF12CCA01B901A7010F
:100D300096010E94380D605DF80162938F012115C4
:100D400031054105510589F790E080E0309761F069
:100D500001900020E9F73197AF01401B510BB8011A
:100D600086E792E00E94AD01A1960FB6F894DEBF2F
:100D70000FBECDBFDF91CF911F910F91FF90EF90EC
:100D8000DF90CF900895FC0101900020E9F73197A2
:100D9000AF01481B590BBC0186E792E00C94AD01F2
:100DA00085ED8093BC008091420290914302A09116
:100DB0004402B09145020796A11DB11D23E0B695EE
:100DC000A795979587952A95D1F72091BC0024FD8A
:100DD00003C0109240020895409142025091430294
:100DE0006091440270914502452B462B472B69F3D5
:100DF0000097A105B10541F02AE22A95F1F700C05C
:100E00000197A109B109E1CF809141020C94370209
:100E10001F920F920FB60F9211242F933F938F932F
:100E20009F93AF93BF938091EA019091EB01A091C2
:100E3000EC01B091ED013091E90123E0230F2D3752
:100E400058F50196A11DB11D2093E9018093EA0197
:100E50009093EB01A093EC01B093ED018091EE0132
:100E60009091EF01A091F001B091F1010196A11DC7
:100E7000B11D8093EE019093EF01A093F001B09328
:100E8000F101BF91AF919F918F913F912F910F9061
:100E90000FBE0F901F90189526E8230F0296A11DF4
:100EA000B11DD2CF1F920F920FB60F9211242F9324
:100EB0003F934F935F936F937F938F939F93AF93E2
:100EC000BF93EF93FF938091B900887F803609F438
:100ED0004AC0F0F5883209F4A7C018F5803109F44A
:100EE0009BC0B8F4882309F4F9C0883009F494C091
:100EF000FF91EF91BF91AF919F918F917F916F91F2
:100F00005F914F913F912F910F900FBE0F901F90C7
:100F10001895883109F488C0803251F780933E02D9
:100F200014C0803409F49DC040F48033B9F3883391
:100F3000F9F680933E0285ECB0C0803509F485C097
:100F4000883509F496C0883499F60E94D006D0CF2F
:100F5000883909F48CC038F5883729F050F4883680
:100F600011F0803729F683E0809340021092D5017A
:100F700057C0883809F47BC0803919F0803809F0EF
:100F8000B7CF8091D501803208F071C0E091D501D2
:100F900081E08E0F8093D5018091BB00F0E0EB548F
:100FA000FE4F80833DC0803B39F0E0F4803A09F485
:100FB00079C0883A09F09CCF84E080934002109277
:100FC000B4011092B301E091F401F091F50109959B
:100FD0008091B30181110FC081E08093B301109221
:100FE000930109C0803C09F4A6CF883C09F4A3CF43
:100FF000883B09F07DCFE091B40181E08E0F8093B2
:10100000B401F0E0ED56FE4F80818093BB009091DB
:10101000B4018091B30129C080911B028093BB0071
:1010200085EC8093BC0064CF90913D0280913C029E
:10103000981758F5E0913D0281E08E0F80933D02B4
:10104000F0E0E45EFD4F8081E9CFE0913D0281E078
:101050008E0F80933D028091BB00F0E0E45EFD4F77
:10106000808390913D0280913C029817C8F285E8F8
:10107000D8CFE0913D0281E08E0F80933D028091B8
:10108000BB00F0E0E45EFD4F808380913F02811160
:101090005CCF81E080931A0284EA8093BC001092B6
:1010A000400226CF85EC8093BC00109240028091D4
:1010B000D501803230F4E091D501F0E0EB54FE4FE1
:1010C00010826091D50170E0E091F201F091F3019E
:1010D00085EB91E009951092D5010ACF10923E025E
:1010E00034CFFC01908190539A3008F090E08181D8
:1010F00080532AE0929F800D11240895EAE6F2E0E1
:101100001382128288EE93E0A0E0B0E0848395839E
:10111000A683B78389E191E091838083E6E7F2E0DB
:10112000138212828BE291E091838083118687E2A1
:10113000848380E1828782E0838714860895CF9339
:10114000DF93CDB7DEB72C970FB6F894DEBF0FBE96
:10115000CDBF789484B5826084BD84B5816084BD40
:1011600085B5826085BD85B5816085BD80916E0045
:10117000816080936E001092810080918100826076
:1011800080938100809181008160809381008091B3
:1011900080008160809380008091B10084608093A2
:1011A000B1008091B00081608093B00080917A009E
:1011B000846080937A0080917A00826080937A00C4
:1011C00080917A00816080937A0080917A008068B3
:1011D00080937A001092C1000E94200210927B023C
:1011E00080918102823018F098E090937B02809386
:1011F0007E0262E370E080E090E00E946F01609107
:10120000820286E792E00E94110468EE73E080E0BB
:1012100090E00E946F0160E386E792E00E94F6058D
:101220000BE416E4C8010197F1F760E386E792E06A
:101230000E94F605C8010197F1F760E386E792E0A6
:101240000E94F60583E592E00197F1F760E286E7F8
:1012500092E00E94F60560917B02606240E086E7C2
:1012600092E00E940F0684E080937C0240E06CE0F4
:1012700086E792E00E940F060E94570682E0809364
:101280007D0240E066E086E792E00E940F0640E0C3
:1012900062E086E792E00E940F068BE39FE10197F0
:1012A000F1F788E08093820260E086E792E00E9496
:1012B000110480E00E9426068091F6019091F701CA
:1012C000009711F00E94100E86E090E00E94740DCD
:1012D0008C0188E6F80180838AE692E0928381831C
:1012E000138280E290E0958384831093F70100934A
:1012F000F6010E942002EE24E394F801E382C80183
:101300000E946603811105C08DE391E00E94C3062F
:10131000FFCF1C868091F6019091F701FC0124819A
:101320003581232B89F02081E092460220936802C8
:10133000109247021092690221E041E050E0BE01A4
:10134000645F7F4F0E94480341E050E08E010F5FD1
:101350001F4FB8018091F6019091F7010E94280477
:10136000898190E0880F892F881F990B892B09F4B8
:10137000B3C00E9457068CE491E00E94C3064BE084
:1013800050E061E770E0C8010E940F0DCE010A969F
:101390000E947108E82EE981E154E33130F50E2E08
:1013A000000CFF0BEA52F64F0C945A0D0C0BF5098A
:1013B000F509270BF5092A0BF509F509F509E909DE
:1013C000F509F509150B240B210BF509F509F509AC
:1013D0001E0B8A81FF24F394813639F08B81A6E0BD
:1013E000FA2E8E3611F0F7E0FF2ECE0105960E9400
:1013F0007108D82E48E050E068E670E0C8010E940D
:101400000F0DC8010E947108C82ECE0104960E94DB
:101410007108B82ECE0107960E947108382F86E019
:10142000F80111928A95E9F72AE0832F622F0E9432
:10143000180D982F880F890F880F830F8A838B2DA3
:101440000E94180D982F880F890F880F8B0D8B83A2
:101450008C2D0E94180D982F880F890F880F8C0DE6
:101460008C838D2D0E94180D982F880F890F880F5F
:101470008D0D8E838F2D0E94180D982F990F890F37
:10148000880FF80EFF828E2D0E94180D982F880F5E
:10149000890F880F8E0D88878091F6019091F70152
:1014A000FC01248135812830310580F0208131E034
:1014B000309346022093680210924702109269020C
:1014C00021E048E050E0B8010E94480360ED77E079
:1014D00080E090E00E946F0161E087E00E941901C6
:1014E00060E087E00E94EB0062E08BE00E9419015F
:1014F00062E08AE00E94190162E089E00E9419011D
:1015000062E088E00E9419010E9457069924939492
:10151000882483940E94A101C090DB01D090DC015B
:10152000E090DD01F090DE016C157D058E059F05D4
:1015300008F093C08AE00E94C20021E0892B09F0E4
:1015400020E02093020189E00E94C20021E0892B63
:1015500009F020E02093010188E00E94C20021E010
:10156000892B09F020E0209300018091DF0188237E
:1015700009F47EC161E087E00E94EB000E94A101B6
:10158000C090E501D090E601E090E701F090E8011D
:101590006C197D098E099F09653F71408105910590
:1015A00078F08091E40189258093E4010E94A101F3
:1015B0006093E5017093E6018093E7019093E80161
:1015C000E090E201F090E301809105019091060125
:1015D000E816F90649F00E945706F0920601E092DB
:1015E00005012CE320930401C8010E944D05809160
:1015F000E2019091E3018130910509F4B8C108F44A
:1016000056C1029709F4DEC1E0E0F0E0EF2B09F4E7
:1016100081CF0E9400007ECF8B81E4E0FE2E8237D6
:1016200009F4E3CE78E0F72EE0CE8B8163E0F62E6E
:10163000823709F4DACE55E0F52ED7CE49E0F42E04
:10164000D4CE3AE0F32ED1CE2BE0F22ECECE9CE0DB
:10165000F92ECBCE82E0F82EC8CE4090DF0120904C
:10166000E2013090E3018BE00E94C2003C018AE07D
:101670000E94C2005C0189E00E94C2006C0188E007
:101680000E94C2007C01442001F1672849F0A114A6
:10169000B10431F0C114D10419F0892B09F09FC0B5
:1016A0001092DF0160E087E00E94EB000E94A10140
:1016B0006C507E4F8F4F9F4F6093DB017093DC0126
:1016C0008093DD019093DE0150CF672809F087C039
:1016D0004090D7015090D8016090D9017090DA0104
:1016E000411451046104710409F05CC00E94A1011D
:1016F0006093D7017093D8018093D9019093DA0158
:101700001092D6012091E2013091E301A114B104BD
:1017100091F48091020181110EC02130310509F050
:101720007FC08091030190E0019668E170E00E9423
:10173000240D80930301C114D10481F4809101012F
:1017400081110CC02130310509F07BC0809103016B
:10175000882309F474C0815080930301E114F104DB
:1017600071F48091000181110AC02130310509F026
:1017700076C0E2E0F0E0F093E301E093E20181E083
:10178000AB2809F080E08093020181E0CD2809F0C8
:1017900080E08093010181E0EF2809F080E08093F0
:1017A0000001E3CE8091D6018111ACCF0E94A1014E
:1017B0006419750986099709613D7740810591058E
:1017C00008F4A0CF232841F48091E001892580937B
:1017D000E0012CE3209304018092D60193CF809105
:1017E000D7019091D801A091D901B091DA01892B4C
:1017F0008A2B8B2B61F08091D601811108C02328A0
:1018000031F481E090E09093E3018093E201109243
:10181000D7011092D8011092D9011092DA0172CF3B
:101820002230310509F087CF8091E10190E00196E7
:101830006CE370E00E94240D8093E1017CCF87E18E
:101840008BCF2230310509F089CF8091E1018823C7
:1018500021F081508093E10181CF8BE3FBCF2230D7
:10186000310509F08CCF1092E3011092E20187CF8D
:101870008091E001882309F481CE8091E20190916A
:10188000E301892B09F07ACEC8010E944D059C81A5
:1018900080910301981372CE9D818091E10198138C
:1018A0006DCE8E8181116ACE8092DF0167CE8E81EE
:1018B00090910401891709F4A7CE8093040180E078
:1018C0000E9426068AE591E00E94C3068C818A3038
:1018D00018F480E30E946F068C810E9478068AE3E8
:1018E0000E946F068D818A3018F480E30E946F0693
:1018F0008D810E9478068AE30E946F068E818A306D
:1019000018F480E30E946F068E810E94780681E8B9
:1019100091E00E94C30681E00E94260681E691E0E4
:101920000E94C306F090030189E08F1518F080E350
:101930000E946F068F2D0E9478068AE30E946F0630
:10194000F090E10199E09F1518F080E30E946F0686
:101950008F2D0E9478068091E001882329F083E38F
:1019600091E00E94C30650CE88E391E0FACF80E078
:101970000E94260689E691E00E94C30681E00E944B
:1019800026068091E401882389F080E891E00E9496
:10199000C30688E791E00E94C306F090E101F9E0F8
:1019A000FF15C8F180E30E946F0635C0F090030177
:1019B000E9E0EF1518F080E30E946F068F2D0E947A
:1019C0007806E7CF80E00E94260683E891E00E9437
:1019D000C30681E00E942606F090030129E02F153E
:1019E00018F080E30E946F068F2D0E94780688E72A
:1019F00091E00E94C3068091E401882339F080E8D9
:101A000091E00E94C3068AE791E0ABCFF090E1013C
:101A100089E08F1538F68F2D0E947806F4CFFB01F0
:101A2000DC0102C005900D9241505040D8F7089556
:101A3000991B79E004C0991F961708F0961B881F20
:101A40007A95C9F78095089597FB072E16F40094B0
:101A500007D077FD09D00E94600D07FC05D03EF449
:101A6000909581959F4F0895709561957F4F08954A
:101A7000A1E21A2EAA1BBB1BFD010DC0AA1FBB1F92
:101A8000EE1FFF1FA217B307E407F50720F0A21B04
:101A9000B30BE40BF50B661F771F881F991F1A9471
:101AA00069F760957095809590959B01AC01BD019B
:101AB000CF010895EE0FFF1F0590F491E02D0994DA
:101AC000AA1BBB1B51E107C0AA1FBB1FA617B70764
:101AD00010F0A61BB70B881F991F5A95A9F7809580
:101AE0009095BC01CD0108950F931F93CF93DF9381
:101AF0008230910510F482E090E0E0918502F0914F
:101B0000860230E020E0B0E0A0E0309799F42115A3
:101B1000310509F44AC0281B390B24303105D8F5AA
:101B20008A819B816115710589F1FB019383828311
:101B3000FE0111C04081518102811381481759076C
:101B4000E0F04817590799F4109761F012960C933A
:101B5000129713961C933296CF01DF91CF911F916C
:101B60000F9108950093850210938602F4CF2115FA
:101B7000310551F04217530738F0A901DB019A01F2
:101B8000BD01DF01F801C1CFEF01F9CF90938602CB
:101B900080938502CDCFFE01E20FF31F81939193D5
:101BA0002250310939832883D7CF20918302309185
:101BB0008402232B41F42091090130910A013093D2
:101BC000840220938302209107013091080121159E
:101BD000310541F42DB73EB740910B0150910C01F6
:101BE000241B350BE0918302F0918402E217F30786
:101BF000A0F42E1B3F0B2817390778F0AC014E5F7D
:101C00005F4F2417350748F04E0F5F1F5093840233
:101C100040938302819391939FCFF0E0E0E09CCFCB
:101C2000CF93DF930097E9F0FC0132971382128281
:101C3000A0918502B0918602ED0130E020E010977E
:101C4000A1F420813181820F931F20918302309172
:101C500084022817390709F061C0F0938402E093E9
:101C60008302DF91CF910895EA01CE17DF07E8F5EF
:101C70004A815B819E0141155105B1F7E901FB8362
:101C8000EA8349915991C40FD51FEC17FD0761F400
:101C9000808191810296840F951FE9019983888341
:101CA000828193819B838A83F0E0E0E012968D919C
:101CB0009C9113970097B9F52D913C911197CD0107
:101CC0000296820F931F209183023091840228177D
:101CD000390739F6309751F5109286021092850235
:101CE000B0938402A0938302BCCFD383C28340818C
:101CF0005181840F951FC817D90761F44E5F5F4F5C
:101D000088819981480F591F518340838A819B8123
:101D1000938382832115310509F0B0CFF0938602B9
:101D2000E09385029ECFFD01DC01C0CF13821282B9
:101D3000D7CFF894FFCF010101063CFFFF000087D9
:101D4000028000000040001400540000000000E287
:101D500003B50325048B03AE039B038C0300000033
:101D6000006906AD012504DA01204F4E2000204F06
:101D7000464600525443206E6F7420666F756E6441
:101D800021005254432061646A7573742E2E2E0014
:101D900054696D653A2000416C61726D3A200053C0
:101DA000657420416C61726D20486F7572003A0055
:101DB00020202020202020200053657420416C61C9
:081DC000726D204D696E0000F8
:107E0000112484B714BE81FFF0D085E080938100F7
:107E100082E08093C00088E18093C10086E0809377
:107E2000C20080E18093C4008EE0C9D0259A86E02C
:107E300020E33CEF91E0309385002093840096BBD3
:107E4000B09BFECF1D9AA8958150A9F7CC24DD24C4
:107E500088248394B5E0AB2EA1E19A2EF3E0BF2EE7
:107E6000A2D0813461F49FD0082FAFD0023811F036
:107E7000013811F484E001C083E08DD089C08234E0
:107E800011F484E103C0853419F485E0A6D080C0E4
:107E9000853579F488D0E82EFF2485D0082F10E0AE
:107EA000102F00270E291F29000F111F8ED06801E7
:107EB0006FC0863521F484E090D080E0DECF843638
:107EC00009F040C070D06FD0082F6DD080E0C81688
:107ED00080E7D80618F4F601B7BEE895C0E0D1E017
:107EE00062D089930C17E1F7F0E0CF16F0E7DF06D8
:107EF00018F0F601B7BEE89568D007B600FCFDCFD4
:107F0000A601A0E0B1E02C9130E011968C91119780
:107F100090E0982F8827822B932B1296FA010C0160
:107F200087BEE89511244E5F5F4FF1E0A038BF0790
:107F300051F7F601A7BEE89507B600FCFDCF97BE46
:107F4000E89526C08437B1F42ED02DD0F82E2BD052
:107F50003CD0F601EF2C8F010F5F1F4F84911BD097
:107F6000EA94F801C1F70894C11CD11CFA94CF0C13
:107F7000D11C0EC0853739F428D08EE10CD085E9AC
:107F80000AD08FE07ACF813511F488E018D01DD067
:107F900080E101D065CF982F8091C00085FFFCCF94
:107FA0009093C60008958091C00087FFFCCF809118
:107FB000C00084FD01C0A8958091C6000895E0E648
:107FC000F0E098E1908380830895EDDF803219F02E
:107FD00088E0F5DFFFCF84E1DECF1F93182FE3DFCA
:107FE0001150E9F7F2DF1F91089580E0E8DFEE27F6
:047FF000FF270994CA
:027FFE00040479
:00000001FF
